{
  "contractName": "StarNotary",
  "abi": [
    {
      "constant": true,
      "inputs": [
        {
          "name": "interfaceId",
          "type": "bytes4"
        }
      ],
      "name": "supportsInterface",
      "outputs": [
        {
          "name": "",
          "type": "bool"
        }
      ],
      "payable": false,
      "stateMutability": "view",
      "type": "function"
    },
    {
      "constant": true,
      "inputs": [
        {
          "name": "",
          "type": "uint256"
        }
      ],
      "name": "starsForSale",
      "outputs": [
        {
          "name": "",
          "type": "uint256"
        }
      ],
      "payable": false,
      "stateMutability": "view",
      "type": "function"
    },
    {
      "constant": true,
      "inputs": [
        {
          "name": "tokenId",
          "type": "uint256"
        }
      ],
      "name": "getApproved",
      "outputs": [
        {
          "name": "",
          "type": "address"
        }
      ],
      "payable": false,
      "stateMutability": "view",
      "type": "function"
    },
    {
      "constant": false,
      "inputs": [
        {
          "name": "to",
          "type": "address"
        },
        {
          "name": "tokenId",
          "type": "uint256"
        }
      ],
      "name": "approve",
      "outputs": [],
      "payable": false,
      "stateMutability": "nonpayable",
      "type": "function"
    },
    {
      "constant": true,
      "inputs": [
        {
          "name": "",
          "type": "uint256"
        }
      ],
      "name": "tokenIdToStarInfo",
      "outputs": [
        {
          "name": "name",
          "type": "string"
        }
      ],
      "payable": false,
      "stateMutability": "view",
      "type": "function"
    },
    {
      "constant": false,
      "inputs": [
        {
          "name": "from",
          "type": "address"
        },
        {
          "name": "to",
          "type": "address"
        },
        {
          "name": "tokenId",
          "type": "uint256"
        }
      ],
      "name": "transferFrom",
      "outputs": [],
      "payable": false,
      "stateMutability": "nonpayable",
      "type": "function"
    },
    {
      "constant": false,
      "inputs": [
        {
          "name": "from",
          "type": "address"
        },
        {
          "name": "to",
          "type": "address"
        },
        {
          "name": "tokenId",
          "type": "uint256"
        }
      ],
      "name": "safeTransferFrom",
      "outputs": [],
      "payable": false,
      "stateMutability": "nonpayable",
      "type": "function"
    },
    {
      "constant": true,
      "inputs": [
        {
          "name": "tokenId",
          "type": "uint256"
        }
      ],
      "name": "ownerOf",
      "outputs": [
        {
          "name": "",
          "type": "address"
        }
      ],
      "payable": false,
      "stateMutability": "view",
      "type": "function"
    },
    {
      "constant": true,
      "inputs": [
        {
          "name": "owner",
          "type": "address"
        }
      ],
      "name": "balanceOf",
      "outputs": [
        {
          "name": "",
          "type": "uint256"
        }
      ],
      "payable": false,
      "stateMutability": "view",
      "type": "function"
    },
    {
      "constant": false,
      "inputs": [
        {
          "name": "to",
          "type": "address"
        },
        {
          "name": "approved",
          "type": "bool"
        }
      ],
      "name": "setApprovalForAll",
      "outputs": [],
      "payable": false,
      "stateMutability": "nonpayable",
      "type": "function"
    },
    {
      "constant": false,
      "inputs": [
        {
          "name": "from",
          "type": "address"
        },
        {
          "name": "to",
          "type": "address"
        },
        {
          "name": "tokenId",
          "type": "uint256"
        },
        {
          "name": "_data",
          "type": "bytes"
        }
      ],
      "name": "safeTransferFrom",
      "outputs": [],
      "payable": false,
      "stateMutability": "nonpayable",
      "type": "function"
    },
    {
      "constant": true,
      "inputs": [
        {
          "name": "owner",
          "type": "address"
        },
        {
          "name": "operator",
          "type": "address"
        }
      ],
      "name": "isApprovedForAll",
      "outputs": [
        {
          "name": "",
          "type": "bool"
        }
      ],
      "payable": false,
      "stateMutability": "view",
      "type": "function"
    },
    {
      "anonymous": false,
      "inputs": [
        {
          "indexed": true,
          "name": "from",
          "type": "address"
        },
        {
          "indexed": true,
          "name": "to",
          "type": "address"
        },
        {
          "indexed": true,
          "name": "tokenId",
          "type": "uint256"
        }
      ],
      "name": "Transfer",
      "type": "event"
    },
    {
      "anonymous": false,
      "inputs": [
        {
          "indexed": true,
          "name": "owner",
          "type": "address"
        },
        {
          "indexed": true,
          "name": "approved",
          "type": "address"
        },
        {
          "indexed": true,
          "name": "tokenId",
          "type": "uint256"
        }
      ],
      "name": "Approval",
      "type": "event"
    },
    {
      "anonymous": false,
      "inputs": [
        {
          "indexed": true,
          "name": "owner",
          "type": "address"
        },
        {
          "indexed": true,
          "name": "operator",
          "type": "address"
        },
        {
          "indexed": false,
          "name": "approved",
          "type": "bool"
        }
      ],
      "name": "ApprovalForAll",
      "type": "event"
    },
    {
      "constant": true,
      "inputs": [],
      "name": "tokenName",
      "outputs": [
        {
          "name": "",
          "type": "string"
        }
      ],
      "payable": false,
      "stateMutability": "pure",
      "type": "function"
    },
    {
      "constant": true,
      "inputs": [],
      "name": "tokenSymbol",
      "outputs": [
        {
          "name": "",
          "type": "string"
        }
      ],
      "payable": false,
      "stateMutability": "pure",
      "type": "function"
    },
    {
      "constant": false,
      "inputs": [
        {
          "name": "_name",
          "type": "string"
        },
        {
          "name": "_tokenId",
          "type": "uint256"
        }
      ],
      "name": "createStar",
      "outputs": [],
      "payable": false,
      "stateMutability": "nonpayable",
      "type": "function"
    },
    {
      "constant": false,
      "inputs": [
        {
          "name": "_tokenId",
          "type": "uint256"
        },
        {
          "name": "_price",
          "type": "uint256"
        }
      ],
      "name": "putStarUpForSale",
      "outputs": [],
      "payable": false,
      "stateMutability": "nonpayable",
      "type": "function"
    },
    {
      "constant": false,
      "inputs": [
        {
          "name": "_tokenId",
          "type": "uint256"
        }
      ],
      "name": "buyStar",
      "outputs": [],
      "payable": true,
      "stateMutability": "payable",
      "type": "function"
    },
    {
      "constant": true,
      "inputs": [
        {
          "name": "_tokenId",
          "type": "uint256"
        }
      ],
      "name": "lookUptokenIdToStarInfo",
      "outputs": [
        {
          "components": [
            {
              "name": "name",
              "type": "string"
            }
          ],
          "name": "",
          "type": "tuple"
        }
      ],
      "payable": false,
      "stateMutability": "view",
      "type": "function"
    },
    {
      "constant": false,
      "inputs": [
        {
          "name": "_tokenId1",
          "type": "uint256"
        },
        {
          "name": "_tokenId2",
          "type": "uint256"
        }
      ],
      "name": "exchangeStars",
      "outputs": [],
      "payable": false,
      "stateMutability": "nonpayable",
      "type": "function"
    },
    {
      "constant": false,
      "inputs": [
        {
          "name": "_to1",
          "type": "address"
        },
        {
          "name": "_tokenId",
          "type": "uint256"
        }
      ],
      "name": "transferStar",
      "outputs": [],
      "payable": false,
      "stateMutability": "nonpayable",
      "type": "function"
    }
  ],
  "bytecode": "0x608060405261001a6301ffc9a760e01b61003560201b60201c565b6100306380ac58cd60e01b61003560201b60201c565b6100d4565b63ffffffff60e01b817bffffffffffffffffffffffffffffffffffffffffffffffffffffffff1916141561006857600080fd5b6001600080837bffffffffffffffffffffffffffffffffffffffffffffffffffffffff19167bffffffffffffffffffffffffffffffffffffffffffffffffffffffff1916815260200190815260200160002060006101000a81548160ff02191690831515021790555050565b61220480620000e46000396000f3fe60806040526004361061011f5760003560e01c80636352211e116100a0578063a22cb46511610064578063a22cb465146103fa578063b88d4fde14610423578063d7830ccb1461044c578063e7152a5c14610489578063e985e9c5146104b25761011f565b80636352211e146103015780636c02a9311461033e57806370a08231146103695780637b61c320146103a65780639697c0a1146103d15761011f565b80631967fd98116100e75780631967fd981461022d57806323b872dd1461026a5780632f1c34ef14610293578063316a4361146102af57806342842e0e146102d85761011f565b806301ffc9a7146101245780630564b13014610161578063081812fc1461019e578063095ea7b3146101db57806315e0afa514610204575b600080fd5b34801561013057600080fd5b5061014b60048036036101469190810190611a74565b6104ef565b6040516101589190611e7c565b60405180910390f35b34801561016d57600080fd5b5061018860048036036101839190810190611b1a565b610556565b6040516101959190611f7d565b60405180910390f35b3480156101aa57600080fd5b506101c560048036036101c09190810190611b1a565b61056e565b6040516101d29190611e15565b60405180910390f35b3480156101e757600080fd5b5061020260048036036101fd9190810190611a38565b6105bd565b005b34801561021057600080fd5b5061022b60048036036102269190810190611b43565b6106fe565b005b34801561023957600080fd5b50610254600480360361024f9190810190611b1a565b6107b9565b6040516102619190611e97565b60405180910390f35b34801561027657600080fd5b50610291600480360361028c9190810190611932565b61086f565b005b6102ad60048036036102a89190810190611b1a565b610892565b005b3480156102bb57600080fd5b506102d660048036036102d19190810190611b43565b610a06565b005b3480156102e457600080fd5b506102ff60048036036102fa9190810190611932565b610a98565b005b34801561030d57600080fd5b5061032860048036036103239190810190611b1a565b610ab8565b6040516103359190611e15565b60405180910390f35b34801561034a57600080fd5b50610353610b34565b6040516103609190611eb9565b60405180910390f35b34801561037557600080fd5b50610390600480360361038b91908101906118cd565b610b71565b60405161039d9190611f7d565b60405180910390f35b3480156103b257600080fd5b506103bb610bf3565b6040516103c89190611eb9565b60405180910390f35b3480156103dd57600080fd5b506103f860048036036103f39190810190611ac6565b610c30565b005b34801561040657600080fd5b50610421600480360361041c91908101906119fc565b610c8c565b005b34801561042f57600080fd5b5061044a60048036036104459190810190611981565b610dc2565b005b34801561045857600080fd5b50610473600480360361046e9190810190611b1a565b610de8565b6040516104809190611f5b565b60405180910390f35b34801561049557600080fd5b506104b060048036036104ab9190810190611a38565b610eb7565b005b3480156104be57600080fd5b506104d960048036036104d491908101906118f6565b610f42565b6040516104e69190611e7c565b60405180910390f35b6000806000837bffffffffffffffffffffffffffffffffffffffffffffffffffffffff19167bffffffffffffffffffffffffffffffffffffffffffffffffffffffff1916815260200190815260200160002060009054906101000a900460ff169050919050565b60066020528060005260406000206000915090505481565b600061057982610fd6565b61058257600080fd5b6002600083815260200190815260200160002060009054906101000a900473ffffffffffffffffffffffffffffffffffffffff169050919050565b60006105c882610ab8565b90508073ffffffffffffffffffffffffffffffffffffffff168373ffffffffffffffffffffffffffffffffffffffff16141561060357600080fd5b8073ffffffffffffffffffffffffffffffffffffffff163373ffffffffffffffffffffffffffffffffffffffff16148061064357506106428133610f42565b5b61064c57600080fd5b826002600084815260200190815260200160002060006101000a81548173ffffffffffffffffffffffffffffffffffffffff021916908373ffffffffffffffffffffffffffffffffffffffff160217905550818373ffffffffffffffffffffffffffffffffffffffff168273ffffffffffffffffffffffffffffffffffffffff167f8c5be1e5ebec7d5bd14f71427d1e84f3dd0314c0f7b2291e5b200ac8c7c3b92560405160405180910390a4505050565b600061070983610ab8565b9050600061071683610ab8565b90508173ffffffffffffffffffffffffffffffffffffffff163373ffffffffffffffffffffffffffffffffffffffff16141561076757610757828286611048565b610762818385611048565b6107b3565b8073ffffffffffffffffffffffffffffffffffffffff163373ffffffffffffffffffffffffffffffffffffffff1614156107b2576107a6818385611048565b6107b1828286611048565b5b5b50505050565b6005602052806000526040600020600091509050806000018054600181600116156101000203166002900480601f0160208091040260200160405190810160405280929190818152602001828054600181600116156101000203166002900480156108655780601f1061083a57610100808354040283529160200191610865565b820191906000526020600020905b81548152906001019060200180831161084857829003601f168201915b5050505050905081565b61087933826112a9565b61088257600080fd5b61088d838383611048565b505050565b60006006600083815260200190815260200160002054116108e8576040517f08c379a00000000000000000000000000000000000000000000000000000000081526004016108df90611f3b565b60405180910390fd5b600060066000838152602001908152602001600020549050600061090b83610ab8565b905081341161094f576040517f08c379a000000000000000000000000000000000000000000000000000000000815260040161094690611efb565b60405180910390fd5b61095a813385611048565b60006109658261133e565b90508073ffffffffffffffffffffffffffffffffffffffff166108fc849081150290604051600060405180830381858888f193505050501580156109ad573d6000803e3d6000fd5b5082341115610a00573373ffffffffffffffffffffffffffffffffffffffff166108fc8434039081150290604051600060405180830381858888f193505050501580156109fe573d6000803e3d6000fd5b505b50505050565b3373ffffffffffffffffffffffffffffffffffffffff16610a2683610ab8565b73ffffffffffffffffffffffffffffffffffffffff1614610a7c576040517f08c379a0000000000000000000000000000000000000000000000000000000008152600401610a7390611f1b565b60405180910390fd5b8060066000848152602001908152602001600020819055505050565b610ab383838360405180602001604052806000815250610dc2565b505050565b6000806001600084815260200190815260200160002060009054906101000a900473ffffffffffffffffffffffffffffffffffffffff169050600073ffffffffffffffffffffffffffffffffffffffff168173ffffffffffffffffffffffffffffffffffffffff161415610b2b57600080fd5b80915050919050565b60606040518060400160405280601081526020017f43727970746f5374617220546f6b656e00000000000000000000000000000000815250905090565b60008073ffffffffffffffffffffffffffffffffffffffff168273ffffffffffffffffffffffffffffffffffffffff161415610bac57600080fd5b600360008373ffffffffffffffffffffffffffffffffffffffff1673ffffffffffffffffffffffffffffffffffffffff168152602001908152602001600020549050919050565b60606040518060400160405280600381526020017f4353540000000000000000000000000000000000000000000000000000000000815250905090565b610c38611704565b604051806020016040528084815250905080600560008481526020019081526020016000206000820151816000019080519060200190610c79929190611717565b50905050610c873383611348565b505050565b3373ffffffffffffffffffffffffffffffffffffffff168273ffffffffffffffffffffffffffffffffffffffff161415610cc557600080fd5b80600460003373ffffffffffffffffffffffffffffffffffffffff1673ffffffffffffffffffffffffffffffffffffffff16815260200190815260200160002060008473ffffffffffffffffffffffffffffffffffffffff1673ffffffffffffffffffffffffffffffffffffffff16815260200190815260200160002060006101000a81548160ff0219169083151502179055508173ffffffffffffffffffffffffffffffffffffffff163373ffffffffffffffffffffffffffffffffffffffff167f17307eab39ab6107e8899845ad3d59bd9653f200f220920489ca2b5937696c3183604051610db69190611e7c565b60405180910390a35050565b610dcd84848461086f565b610dd9848484846114dd565b610de257600080fd5b50505050565b610df0611704565b60056000838152602001908152602001600020604051806020016040529081600082018054600181600116156101000203166002900480601f016020809104026020016040519081016040528092919081815260200182805460018160011615610100020316600290048015610ea75780601f10610e7c57610100808354040283529160200191610ea7565b820191906000526020600020905b815481529060010190602001808311610e8a57829003601f168201915b5050505050815250509050919050565b6000610ec282610ab8565b90508073ffffffffffffffffffffffffffffffffffffffff163373ffffffffffffffffffffffffffffffffffffffff1614610f32576040517f08c379a0000000000000000000000000000000000000000000000000000000008152600401610f2990611edb565b60405180910390fd5b610f3d818484611048565b505050565b6000600460008473ffffffffffffffffffffffffffffffffffffffff1673ffffffffffffffffffffffffffffffffffffffff16815260200190815260200160002060008373ffffffffffffffffffffffffffffffffffffffff1673ffffffffffffffffffffffffffffffffffffffff16815260200190815260200160002060009054906101000a900460ff16905092915050565b6000806001600084815260200190815260200160002060009054906101000a900473ffffffffffffffffffffffffffffffffffffffff169050600073ffffffffffffffffffffffffffffffffffffffff168173ffffffffffffffffffffffffffffffffffffffff161415915050919050565b8273ffffffffffffffffffffffffffffffffffffffff1661106882610ab8565b73ffffffffffffffffffffffffffffffffffffffff161461108857600080fd5b600073ffffffffffffffffffffffffffffffffffffffff168273ffffffffffffffffffffffffffffffffffffffff1614156110c257600080fd5b6110cb816115f4565b61111e6001600360008673ffffffffffffffffffffffffffffffffffffffff1673ffffffffffffffffffffffffffffffffffffffff168152602001908152602001600020546116b290919063ffffffff16565b600360008573ffffffffffffffffffffffffffffffffffffffff1673ffffffffffffffffffffffffffffffffffffffff168152602001908152602001600020819055506111b46001600360008573ffffffffffffffffffffffffffffffffffffffff1673ffffffffffffffffffffffffffffffffffffffff168152602001908152602001600020546116d290919063ffffffff16565b600360008473ffffffffffffffffffffffffffffffffffffffff1673ffffffffffffffffffffffffffffffffffffffff16815260200190815260200160002081905550816001600083815260200190815260200160002060006101000a81548173ffffffffffffffffffffffffffffffffffffffff021916908373ffffffffffffffffffffffffffffffffffffffff160217905550808273ffffffffffffffffffffffffffffffffffffffff168473ffffffffffffffffffffffffffffffffffffffff167fddf252ad1be2c89b69c2b068fc378daa952ba7f163c4a11628f55a4df523b3ef60405160405180910390a4505050565b6000806112b583610ab8565b90508073ffffffffffffffffffffffffffffffffffffffff168473ffffffffffffffffffffffffffffffffffffffff16148061132457508373ffffffffffffffffffffffffffffffffffffffff1661130c8461056e565b73ffffffffffffffffffffffffffffffffffffffff16145b8061133557506113348185610f42565b5b91505092915050565b6000819050919050565b600073ffffffffffffffffffffffffffffffffffffffff168273ffffffffffffffffffffffffffffffffffffffff16141561138257600080fd5b61138b81610fd6565b1561139557600080fd5b816001600083815260200190815260200160002060006101000a81548173ffffffffffffffffffffffffffffffffffffffff021916908373ffffffffffffffffffffffffffffffffffffffff16021790555061143a6001600360008573ffffffffffffffffffffffffffffffffffffffff1673ffffffffffffffffffffffffffffffffffffffff168152602001908152602001600020546116d290919063ffffffff16565b600360008473ffffffffffffffffffffffffffffffffffffffff1673ffffffffffffffffffffffffffffffffffffffff16815260200190815260200160002081905550808273ffffffffffffffffffffffffffffffffffffffff16600073ffffffffffffffffffffffffffffffffffffffff167fddf252ad1be2c89b69c2b068fc378daa952ba7f163c4a11628f55a4df523b3ef60405160405180910390a45050565b60006114fe8473ffffffffffffffffffffffffffffffffffffffff166116f1565b61150b57600190506115ec565b60008473ffffffffffffffffffffffffffffffffffffffff1663150b7a02338887876040518563ffffffff1660e01b815260040161154c9493929190611e30565b602060405180830381600087803b15801561156657600080fd5b505af115801561157a573d6000803e3d6000fd5b505050506040513d601f19601f8201168201806040525061159e9190810190611a9d565b905063150b7a0260e01b7bffffffffffffffffffffffffffffffffffffffffffffffffffffffff1916817bffffffffffffffffffffffffffffffffffffffffffffffffffffffff1916149150505b949350505050565b600073ffffffffffffffffffffffffffffffffffffffff166002600083815260200190815260200160002060009054906101000a900473ffffffffffffffffffffffffffffffffffffffff1673ffffffffffffffffffffffffffffffffffffffff16146116af5760006002600083815260200190815260200160002060006101000a81548173ffffffffffffffffffffffffffffffffffffffff021916908373ffffffffffffffffffffffffffffffffffffffff1602179055505b50565b6000828211156116c157600080fd5b600082840390508091505092915050565b6000808284019050838110156116e757600080fd5b8091505092915050565b600080823b905060008111915050919050565b6040518060200160405280606081525090565b828054600181600116156101000203166002900490600052602060002090601f016020900481019282601f1061175857805160ff1916838001178555611786565b82800160010185558215611786579182015b8281111561178557825182559160200191906001019061176a565b5b5090506117939190611797565b5090565b6117b991905b808211156117b557600081600090555060010161179d565b5090565b90565b6000813590506117cb8161216e565b92915050565b6000813590506117e081612185565b92915050565b6000813590506117f58161219c565b92915050565b60008151905061180a8161219c565b92915050565b600082601f83011261182157600080fd5b813561183461182f82611fc5565b611f98565b9150808252602083016020830185838301111561185057600080fd5b61185b83828461211b565b50505092915050565b600082601f83011261187557600080fd5b813561188861188382611ff1565b611f98565b915080825260208301602083018583830111156118a457600080fd5b6118af83828461211b565b50505092915050565b6000813590506118c7816121b3565b92915050565b6000602082840312156118df57600080fd5b60006118ed848285016117bc565b91505092915050565b6000806040838503121561190957600080fd5b6000611917858286016117bc565b9250506020611928858286016117bc565b9150509250929050565b60008060006060848603121561194757600080fd5b6000611955868287016117bc565b9350506020611966868287016117bc565b9250506040611977868287016118b8565b9150509250925092565b6000806000806080858703121561199757600080fd5b60006119a5878288016117bc565b94505060206119b6878288016117bc565b93505060406119c7878288016118b8565b925050606085013567ffffffffffffffff8111156119e457600080fd5b6119f087828801611810565b91505092959194509250565b60008060408385031215611a0f57600080fd5b6000611a1d858286016117bc565b9250506020611a2e858286016117d1565b9150509250929050565b60008060408385031215611a4b57600080fd5b6000611a59858286016117bc565b9250506020611a6a858286016118b8565b9150509250929050565b600060208284031215611a8657600080fd5b6000611a94848285016117e6565b91505092915050565b600060208284031215611aaf57600080fd5b6000611abd848285016117fb565b91505092915050565b60008060408385031215611ad957600080fd5b600083013567ffffffffffffffff811115611af357600080fd5b611aff85828601611864565b9250506020611b10858286016118b8565b9150509250929050565b600060208284031215611b2c57600080fd5b6000611b3a848285016118b8565b91505092915050565b60008060408385031215611b5657600080fd5b6000611b64858286016118b8565b9250506020611b75858286016118b8565b9150509250929050565b611b88816120e5565b82525050565b611b9781612071565b82525050565b611ba681612083565b82525050565b6000611bb78261201d565b611bc1818561203e565b9350611bd181856020860161212a565b611bda8161215d565b840191505092915050565b6000611bf082612033565b611bfa8185612060565b9350611c0a81856020860161212a565b611c138161215d565b840191505092915050565b6000611c2982612028565b611c33818561204f565b9350611c4381856020860161212a565b611c4c8161215d565b840191505092915050565b6000611c6282612028565b611c6c8185612060565b9350611c7c81856020860161212a565b611c858161215d565b840191505092915050565b6000611c9d603283612060565b91507f5468652073656e6465722068617320746f206f776e657220746865207374617260008301527f206265696e67207472616e7366657272656400000000000000000000000000006020830152604082019050919050565b6000611d03601d83612060565b91507f596f75206e65656420746f206861766520656e6f7567682045746865720000006000830152602082019050919050565b6000611d43602383612060565b91507f596f752063616e27742073656c6c2061205374617220796f7520646f6e27742060008301527f6f776e00000000000000000000000000000000000000000000000000000000006020830152604082019050919050565b6000611da9601e83612060565b91507f54686520537461722073686f756c6420626520757020666f722073616c6500006000830152602082019050919050565b60006020830160008301518482036000860152611df98282611c1e565b9150508091505092915050565b611e0f816120db565b82525050565b6000602082019050611e2a6000830184611b8e565b92915050565b6000608082019050611e456000830187611b7f565b611e526020830186611b8e565b611e5f6040830185611e06565b8181036060830152611e718184611bac565b905095945050505050565b6000602082019050611e916000830184611b9d565b92915050565b60006020820190508181036000830152611eb18184611c57565b905092915050565b60006020820190508181036000830152611ed38184611be5565b905092915050565b60006020820190508181036000830152611ef481611c90565b9050919050565b60006020820190508181036000830152611f1481611cf6565b9050919050565b60006020820190508181036000830152611f3481611d36565b9050919050565b60006020820190508181036000830152611f5481611d9c565b9050919050565b60006020820190508181036000830152611f758184611ddc565b905092915050565b6000602082019050611f926000830184611e06565b92915050565b6000604051905081810181811067ffffffffffffffff82111715611fbb57600080fd5b8060405250919050565b600067ffffffffffffffff821115611fdc57600080fd5b601f19601f8301169050602081019050919050565b600067ffffffffffffffff82111561200857600080fd5b601f19601f8301169050602081019050919050565b600081519050919050565b600081519050919050565b600081519050919050565b600082825260208201905092915050565b600082825260208201905092915050565b600082825260208201905092915050565b600061207c826120bb565b9050919050565b60008115159050919050565b60007fffffffff0000000000000000000000000000000000000000000000000000000082169050919050565b600073ffffffffffffffffffffffffffffffffffffffff82169050919050565b6000819050919050565b60006120f0826120f7565b9050919050565b600061210282612109565b9050919050565b6000612114826120bb565b9050919050565b82818337600083830152505050565b60005b8381101561214857808201518184015260208101905061212d565b83811115612157576000848401525b50505050565b6000601f19601f8301169050919050565b61217781612071565b811461218257600080fd5b50565b61218e81612083565b811461219957600080fd5b50565b6121a58161208f565b81146121b057600080fd5b50565b6121bc816120db565b81146121c757600080fd5b5056fea265627a7a7230582023349a19937fb04a271809e85bd8f103a66468e9a3d2621e6bf342be6a93a25c6c6578706572696d656e74616cf50037",
  "source": "pragma experimental ABIEncoderV2; //solidity >=0.4.24;\n\n//Importing openzeppelin-solidity ERC-721 implemented Standard\nimport \"../node_modules/openzeppelin-solidity/contracts/token/ERC721/ERC721.sol\";\n\n// StarNotary Contract declaration inheritance the ERC721 openzeppelin implementation\ncontract StarNotary is ERC721 {\n\n    // Star data\n    struct Star {\n        string name;\n    }\n\n    // Implement Task 1 Add a name and symbol properties\n    // name: Is a short name to your token\n    // symbol: Is a short string like 'USD' -> 'American Dollar'\n    \n\n    // mapping the Star with the Owner Address\n    mapping(uint256 => Star) public tokenIdToStarInfo;\n    // mapping the TokenId and price\n    mapping(uint256 => uint256) public starsForSale;\n\n    function tokenName() public pure returns (string memory){\n        return \"CryptoStar Token\";\n    }\n\n    function tokenSymbol() public pure returns (string memory){\n        return \"CST\";\n    }\n\n    // Create Star using the Struct\n    function createStar(string memory _name, uint256 _tokenId) public { // Passing the name and tokenId as a parameters\n        Star memory newStar = Star(_name); // Star is an struct so we are creating a new Star\n        tokenIdToStarInfo[_tokenId] = newStar; // Creating in memory the Star -> tokenId mapping\n        _mint(msg.sender, _tokenId); // _mint assign the the star with _tokenId to the sender address (ownership)\n    }\n\n    // Putting an Star for sale (Adding the star tokenid into the mapping starsForSale, first verify that the sender is the owner)\n    function putStarUpForSale(uint256 _tokenId, uint256 _price) public {\n        require(ownerOf(_tokenId) == msg.sender, \"You can't sell a Star you don't own\");\n        starsForSale[_tokenId] = _price;\n    }\n\n    // Function that allows you to convert an address into a payable address\n    function _make_payable(address x) internal pure returns (address payable) {\n        return address(uint160(x));\n    }\n\n    function buyStar(uint256 _tokenId) public  payable {\n        require(starsForSale[_tokenId] > 0, \"The Star should be up for sale\");\n        uint256 starCost = starsForSale[_tokenId];\n        address ownerAddress = ownerOf(_tokenId);\n        require(msg.value > starCost, \"You need to have enough Ether\");\n        // We can't use _addTokenTo or_removeTokenFrom functions, now we have to use _transferFrom\n        _transferFrom(ownerAddress, msg.sender, _tokenId);\n        // We need to make this conversion to be able to use transfer() function to transfer ethers\n        address payable ownerAddressPayable = _make_payable(ownerAddress);\n        ownerAddressPayable.transfer(starCost);\n        if(msg.value > starCost) {\n            msg.sender.transfer(msg.value - starCost);\n        }\n    }\n\n    // Implement Task 1 lookUptokenIdToStarInfo\n    function lookUptokenIdToStarInfo (uint _tokenId) public view returns (Star memory) {\n        //1. You should return the Star saved in tokenIdToStarInfo mapping\n        return tokenIdToStarInfo[_tokenId];\n    }\n\n    // Implement Task 1 Exchange Stars function\n    function exchangeStars(uint256 _tokenId1, uint256 _tokenId2) public {\n        //1. Passing to star tokenId you will need to check if the owner of _tokenId1 or _tokenId2 is the sender\n        //require(msg.sender == (ownerOf(tokenId1)||ownerOf(tokenId2)), \"should work\")\n        //2. You don't have to check for the price of the token (star)\n        //3. Get the owner of the two tokens (ownerOf(_tokenId1), ownerOf(_tokenId1)\n        //4. Use _transferFrom function to exchange the tokens.\n        address ownerTknId1 = ownerOf(_tokenId1);\n        address ownerTknId2 = ownerOf(_tokenId2);\n\n        if(msg.sender == ownerTknId1) {\n            _transferFrom(ownerTknId1, ownerTknId2, _tokenId1);\n            _transferFrom(ownerTknId2, ownerTknId1, _tokenId2);\n        }\n        else if(msg.sender == ownerTknId2) {\n            _transferFrom(ownerTknId2, ownerTknId1, _tokenId2);\n            _transferFrom(ownerTknId1, ownerTknId2, _tokenId1);\n        }\n    }\n\n    // Implement Task 1 Transfer Stars\n    function transferStar(address _to1, uint256 _tokenId) public {\n        //1. Check if the sender is the ownerOf(_tokenId)\n        address tokenOwner = ownerOf(_tokenId);\n        require(msg.sender == tokenOwner, \"The sender has to owner the star being transferred\");\n        //2. Use the transferFrom(from, to, tokenId); function to transfer the Star\n        _transferFrom(tokenOwner, _to1, _tokenId);\n    }\n\n}",
  "sourcePath": "/Users/lsh/github/Udacity/P2v2-CryptoStarDapp/contracts/StarNotary.sol",
  "compiler": {
    "name": "solc",
    "version": "0.5.8+commit.23d335f2.Emscripten.clang"
  },
  "schemaVersion": "3.0.11",
  "updatedAt": "2019-09-17T19:01:40.877Z",
  "devdoc": {
    "methods": {
      "approve(address,uint256)": {
        "details": "Approves another address to transfer the given token ID The zero address indicates there is no approved address. There can only be one approved address per token at a given time. Can only be called by the token owner or an approved operator.",
        "params": {
          "to": "address to be approved for the given token ID",
          "tokenId": "uint256 ID of the token to be approved"
        }
      },
      "balanceOf(address)": {
        "details": "Gets the balance of the specified address",
        "params": {
          "owner": "address to query the balance of"
        },
        "return": "uint256 representing the amount owned by the passed address"
      },
      "getApproved(uint256)": {
        "details": "Gets the approved address for a token ID, or zero if no address set Reverts if the token ID does not exist.",
        "params": {
          "tokenId": "uint256 ID of the token to query the approval of"
        },
        "return": "address currently approved for the given token ID"
      },
      "isApprovedForAll(address,address)": {
        "details": "Tells whether an operator is approved by a given owner",
        "params": {
          "operator": "operator address which you want to query the approval of",
          "owner": "owner address which you want to query the approval of"
        },
        "return": "bool whether the given operator is approved by the given owner"
      },
      "ownerOf(uint256)": {
        "details": "Gets the owner of the specified token ID",
        "params": {
          "tokenId": "uint256 ID of the token to query the owner of"
        },
        "return": "owner address currently marked as the owner of the given token ID"
      },
      "safeTransferFrom(address,address,uint256)": {
        "details": "Safely transfers the ownership of a given token ID to another address If the target address is a contract, it must implement `onERC721Received`, which is called upon a safe transfer, and return the magic value `bytes4(keccak256(\"onERC721Received(address,address,uint256,bytes)\"))`; otherwise, the transfer is reverted.     * Requires the msg sender to be the owner, approved, or operator",
        "params": {
          "from": "current owner of the token",
          "to": "address to receive the ownership of the given token ID",
          "tokenId": "uint256 ID of the token to be transferred"
        }
      },
      "safeTransferFrom(address,address,uint256,bytes)": {
        "details": "Safely transfers the ownership of a given token ID to another address If the target address is a contract, it must implement `onERC721Received`, which is called upon a safe transfer, and return the magic value `bytes4(keccak256(\"onERC721Received(address,address,uint256,bytes)\"))`; otherwise, the transfer is reverted. Requires the msg sender to be the owner, approved, or operator",
        "params": {
          "_data": "bytes data to send along with a safe transfer check",
          "from": "current owner of the token",
          "to": "address to receive the ownership of the given token ID",
          "tokenId": "uint256 ID of the token to be transferred"
        }
      },
      "setApprovalForAll(address,bool)": {
        "details": "Sets or unsets the approval of a given operator An operator is allowed to transfer all tokens of the sender on their behalf",
        "params": {
          "approved": "representing the status of the approval to be set",
          "to": "operator address to set the approval"
        }
      },
      "supportsInterface(bytes4)": {
        "details": "implement supportsInterface(bytes4) using a lookup table"
      },
      "transferFrom(address,address,uint256)": {
        "details": "Transfers the ownership of a given token ID to another address Usage of this method is discouraged, use `safeTransferFrom` whenever possible Requires the msg sender to be the owner, approved, or operator",
        "params": {
          "from": "current owner of the token",
          "to": "address to receive the ownership of the given token ID",
          "tokenId": "uint256 ID of the token to be transferred"
        }
      }
    }
  },
  "userdoc": {
    "methods": {}
  }
}